:020000040000FA
:100000000000000000002F28033087060428071096
:10001000871007110511303090008C0105180E284B
:10002000C401D101D201D301D401D701D901DE012C
:10003000DF01831600009B011C141A0883120000C4
:10004000D500D600D801D61AD8143839D00000000F
:10005000851D53168C018E018F01101444288312C4
:10006000850187010730990000308B0083169101CC
:1000700029308500013087000030950080308100F4
:1000800083120000051107284030312200000715B7
:100090000000000007118316000007108714831268
:1000A00000000B30A1000130A2000430A3000F308B
:1000B000A4000430A5000B30A6000530A7000730CF
:1000C000A8000F30A9000D30AA000630AB000130A7
:1000D000AC000E30AD000930AE000830AF000F307C
:1000E000B1000030B2000A30B3000130B400083073
:1000F000B5000530B6000F30B7000130B800B900C8
:100100000E30BA000130BB000030BC000D30BD0025
:100110000E30BE000C30BF00BA302D22B1190714CA
:1001200000000000071001302D22000000003118EF
:10013000071400000000071001302D22000000000D
:10014000B118071400000000071001302D22000034
:1001500000003119071400000000071001302D22A3
:1001600083160000071487108312000022302D220E
:10017000000000000130C3000130203E8400000078
:1001800000080139A0002018A0145008A00420087D
:100190008700000000000708C200500887003A22CC
:1001A0004418C20C04160008C20604124218C314F4
:1001B000C31C0629D7105316D901D41859165B222F
:1001C000840A0F300405031DBF28092109210921D4
:1001D0003708C40000000000000000003718F528B0
:1001E0008316000007148710FA28831600000710F2
:1001F0008714000083120000541554085904850028
:10020000431037080F39031DBD28BC28000000002B
:10021000DF289C21000000002F08A000013EA1075C
:100220002208C0002108A207A20AA2092308C100CF
:100230000F30A30540080F39A307A30A231A5B292F
:100240004108A4072508C0002408A5072608C10006
:1002500040080F39083EC000401E2607A60041088E
:10026000013EA7072708013EA8072808013EA90765
:100270002908013EAA072A08013EAB072B08013EC8
:10028000AC072C08013EAD072D08013EAE072E0835
:10029000013EAF0720080F390F3EA000000000000C
:1002A0000000000000000000000000000000201E10
:1002B0009B2900000E294108A3072408C000230839
:1002C000A4072508C10040080F39083EC000401EA1
:1002D0002507A5004108013EA6072608013EA707FD
:1002E0002708013EA8072808013EA9072908013E62
:1002F000AA072A08013EAB072B08013EAC072C08D1
:10030000013EAD072D08013EAE072E08013EAF07A6
:1003100020080F390F3EA00087140708DE000000F8
:10032000871000000708DF00000000000000201E0A
:100330009B2920080E2908003F08B000013EB107A4
:100340003208C0003108B207B20AB2093308C1004E
:100350000F30B30540080F39B307B30A331AEB293E
:100360004108B4073508C0003408B5073608C10095
:1003700040080F39083EC000401E3607B60041084D
:10038000013EB7073708013EB8073808013EB907F4
:100390003908013EBA073A08013EBB073B08013E57
:1003A000BC073C08013EBD073D08013EBE073E08B4
:1003B000013EBF0730080F390F3EB00000000000BB
:1003C0000000000000000000000000000000301EDF
:1003D0009B2900009E294108B3073408C000330858
:1003E000B4073508C10040080F39083EC000401E60
:1003F0003507B5004108013EB6073608013EB7078C
:100400003708013EB8073808013EB9073908013EF0
:10041000BA073A08013EBB073B08013EBC073C084F
:10042000013EBD073D08013EBE073E08013EBF0735
:1004300030080F390F3EB0005E18212A5F1C232AB6
:10044000CA2A0000000000000000000000000000B8
:100450000000301E9B2900009E29CF00CF0B2E2AC2
:100460000800CE0003012D22CE0B332A0800051808
:100470000728372A431C4D2A22300406031D512A1F
:10048000421C482A0000D7105912D4100930592AAA
:10049000D7145916D4140630592A00000000000061
:1004A000000000000000000000000000000000004C
:1004B0005A2AB20008000508511C932A0000D100F6
:1004C00051187C2A0000521CE22AD2015608D5009D
:1004D000D801D61AD8140000000083169A001C1503
:1004E00055309D00AA309D009C14831210108C0181
:1004F0008E018F01101408000000000000000000B1
:100500000C1CB62A10108C018E018F011014D60D10
:100510000830561BD6005608383900000000D000BD
:1005200000005214B42AD1005118AF2A0000000074
:1005300000000000000000000000531AC62A0C1C36
:10054000BA2A8C01D30A531EBE2A08305506031D51
:10055000AB2A5708AD2A58080000D400B42A8E01EF
:100560008F018C011014B52A080000000000000063
:10057000000000000000000000000000000000007B
:1005800000000000000000000000B42A000000008D
:100590000000A52A831600000714871483120000A8
:1005A000DD015D150718DD1487185D1605185D114E
:1005B0005D088500071CDF2A20308700D02A103014
:1005C0008700D02A051110108E018F018C011014A4
:1005D000D101051851140C1CE92A511C0728D3011C
:1005E00010108E018F018C0110140C1CF52A8C0147
:0C05F000D30A0A305306031DF52A072821
:02400E00D33F9E
:024200001000AC
:00000001FF
