:020000040000FA
:1000000000000000000010288B1005108510051658
:10001000DE01DF01DF14DD01DC01DC158B17212897
:10002000831285010730990083169F012D308500CA
:1000300024309500003081008312051690308B002B
:10004000202883160514851083120B30A10001307F
:10005000A2000430A3000F30A4000430A5000B3030
:10006000A6000530A7000730A8000F30A9000D300A
:10007000AA000630AB000130AC000E30AD000930F4
:10008000AE000830AF0083169B011C141A088312BF
:10009000B2000A30B3000130B4000830B5000530BA
:1000A000B6000F30B7000130B800B9000E30BA000A
:1000B0000130BB000030BC000D30BD000E30BE0072
:1000C0000C30BF00B530E321B1010518B115023085
:1000D000E32100000000051831140230E321000084
:1000E00000000518B1140230E321000000000518DB
:1000F000311583160510851483122730E321000083
:100100000130303E8400000000000008A000A01074
:100110002018A01420162008850000000000000010
:10012000103085001330E32100005D180512000037
:10013000000005160518ED298518ED29840A0F30F1
:100140000405031D8328BA20BA20BA200230E32117
:10015000000000003718B028831605108514B42855
:100160008316051485100000831237080F39031D0C
:10017000812880284D210508DC002F08A000013EC1
:10018000A1072208C0002108A207A20AA209230889
:10019000C1000F30A30540080F39A307A30A231A93
:1001A0000C294108A4072508C0002408A507260833
:1001B000C10040080F39083EC000401E2607A600B7
:1001C0004108013EA7072708013EA8072808013E6D
:1001D000A9072908013EAA072A08013EAB072B08F8
:1001E000013EAC072C08013EAD072D08013EAE07CD
:1001F0002E08013EAF0720080F390F3EA0005D1802
:1002000005120000000005160000000000000000BC
:10021000201E4C290000BF284108A3072408C00065
:100220002308A4072508C10040080F39083EC00074
:10023000401E2507A5004108013EA6072608013EED
:10024000A7072708013EA8072808013EA907290893
:10025000013EAA072A08013EAB072B08013EAC0766
:100260002C08013EAD072D08013EAE072E08013EC9
:10027000AF0720080F390F3EA00005100508DC1D50
:100280000514DE000508DF0005105D1805120516CF
:10029000201E4C292008BF2808003F08B000013E5E
:1002A000B1073208C0003108B207B20AB2093308F8
:1002B000C1000F30B30540080F39B307B30A331A32
:1002C0009C294108B4073508C0003408B507360832
:1002D000C10040080F39083EC000401E3607B60076
:1002E0004108013EB7073708013EB8073808013E0C
:1002F000B9073908013EBA073A08013EBB073B0877
:10030000013EBC073C08013EBD073D08013EBE075B
:100310003E08013EBF0730080F390F3EB0005D18A0
:10032000051200000000051600000000000000009B
:10033000301E4C2900004F294108B3073408C00083
:100340003308B4073508C10040080F39083EC00023
:10035000401E3507B5004108013EB6073608013E8C
:10036000B7073708013EB8073808013EB907390812
:10037000013EBA073A08013EBB073B08013EBC07F5
:100380003C08013EBD073D08013EBE073E08013E58
:10039000BF0730080F390F3EB000DE1CD429DF182C
:1003A000D629DC19DB290A2A000000000000000021
:1003B00000000000DF2905125D1400000516301E44
:1003C0004C2900004F29CF00CF0BE4290800CE00B4
:1003D0000301E321CE0BE92908003A30E721831617
:1003E00003019B001C141A088312CD004D18FA2932
:1003F0000930FB29063083169A001C158B138B1BC2
:10040000FE2955309D00AA309D009C148B17831245
:100410000512092A83160514851483120516000097
:06042000000005120E2A87
:02400E00D33F9E
:024200000900B3
:00000001FF
