:020000040000FA
:100000000000000000002F28033087060428071096
:10001000871007110511303090008C0105180E284B
:10002000C401D101D201D301D401D701D901DE012C
:10003000DF01831600009B011C141A0883120000C4
:10004000D500D600D801D61AD8143839D00000000F
:10005000851D53168C018E018F01101443288312C5
:10006000850187010730990000308B008316293005
:1000700085000130870000309500803081008312B8
:10008000000005110728403030220000071500004D
:100090000000071183160000071087148312000068
:1000A0000B30A1000130A2000430A3000F30A400E7
:1000B0000430A5000B30A6000530A7000730A800CB
:1000C0000F30A9000D30AA000630AB000130AC00A3
:1000D0000E30AD000930AE000830AF000F30B10077
:1000E0000030B2000A30B3000130B4000830B5006F
:1000F0000530B6000F30B7000130B800B9000E303F
:10010000BA000130BB000030BC000D30BD000E3025
:10011000BE000C30BF00BA302C22B1190714000009
:100120000000071001302C220000000031180714D5
:1001300000000000071001302C2200000000B11860
:10014000071400000000071001302C2200000000FE
:100150003119071400000000071001302C2283160B
:100160000000071487108312000022302C220000A8
:1001700000000130C3000130203E84000000000870
:100180000139A0002018A0145008A00420088700FE
:10019000000000000708C2005008870039224418F8
:1001A000C20C04160008C20604124218C314C31C71
:1001B0000529D7105316D901D41859165A22840A82
:1001C0000F300405031DBE28082108210821370827
:1001D000C40000000000000000003718F428831657
:1001E000000007148710F9288316000007108714F1
:1001F0000000831200005415540859048500431070
:1002000037080F39031DBC28BB2800000000DE287A
:100210009B21000000002F08A000013EA10722083A
:10022000C0002108A207A20AA2092308C1000F30BA
:10023000A30540080F39A307A30A231A5A29410826
:10024000A4072508C0002408A5072608C100400807
:100250000F39083EC000401E2607A6004108013E97
:10026000A7072708013EA8072808013EA907290873
:10027000013EAA072A08013EAB072B08013EAC0746
:100280002C08013EAD072D08013EAE072E08013EA9
:10029000AF0720080F390F3EA0000000000000004B
:1002A000000000000000000000000000201E9A294D
:1002B00000000D294108A3072408C0002308A40753
:1002C0002508C10040080F39083EC000401E250720
:1002D000A5004108013EA6072608013EA7072708FA
:1002E000013EA8072808013EA9072908013EAA07E0
:1002F0002A08013EAB072B08013EAC072C08013E43
:10030000AD072D08013EAE072E08013EAF072008BD
:100310000F390F3EA00087140708DE000000871089
:1003200000000708DF00000000000000201E9A29DE
:1003300020080D2908003F08B000013EB10732082F
:10034000C0003108B207B20AB2093308C1000F3049
:10035000B30540080F39B307B30A331AEA29410835
:10036000B4073508C0003408B5073608C100400896
:100370000F39083EC000401E3607B6004108013E56
:10038000B7073708013EB8073808013EB9073908F2
:10039000013EBA073A08013EBB073B08013EBC07D5
:1003A0003C08013EBD073D08013EBE073E08013E38
:1003B000BF0730080F390F3EB000000000000000FA
:1003C000000000000000000000000000301E9A291C
:1003D00000009D294108B3073408C0003308B40762
:1003E0003508C10040080F39083EC000401E3507DF
:1003F000B5004108013EB6073608013EB707370889
:10040000013EB8073808013EB9073908013EBA076E
:100410003A08013EBB073B08013EBC073C08013ED1
:10042000BD073D08013EBE073E08013EBF0730083C
:100430000F390F3EB0005E18202A5F1C222AC92AFD
:1004400000000000000000000000000000000000AC
:10045000301E9A2900009D29CF00CF0B2D2A0800BD
:10046000CE0003012C22CE0B322A080005180728E3
:10047000362A431C4C2A22300406031D502A421CF3
:10048000472A0000D7105912D4100930582AD7141F
:100490005916D4140630582A00000000000000004D
:1004A0000000000000000000000000000000592AC9
:1004B000B20008000508511C922A0000D100511812
:1004C0007B2A0000521CE12AD2015608D500D8012F
:1004D000D61AD8140000000083169A001C15553057
:1004E0009D00AA309D009C14831210108C018E0177
:1004F0008F011014080000000000000000000C1C18
:10050000B52A10108C018E018F011014D60D083001
:10051000561BD6005608383900000000D0000000F5
:100520005214B32AD1005118AE2A00000000000076
:100530000000000000000000531AC52A0C1CB92A54
:100540008C01D30A531EBD2A08305506031DAA2A62
:100550005708AC2A58080000D400B32A8E018F0136
:100560008C011014B42A08000000000000000000F4
:10057000000000000000000000000000000000007B
:100580000000000000000000B32A0000000000008E
:10059000A42A831600000714871483120000DD01CB
:1005A0005D150718DD1487185D1605185D115D08C7
:1005B0008500071CDE2A20308700CF2A10308700F4
:1005C000CF2A051110108E018F018C011014D1015A
:1005D000051851140C1CE82A511C0728D3011010CF
:1005E0008E018F018C0110140C1CF42A8C01D30A8B
:0A05F0000A305306031DF42A072801
:02400E00D33F9E
:024200001000AC
:00000001FF
